{
  "contractName": "Election",
  "abi": [
    {
      "inputs": [],
      "stateMutability": "nonpayable",
      "type": "constructor"
    },
    {
      "inputs": [],
      "name": "AlreadyVoted",
      "type": "error"
    },
    {
      "inputs": [],
      "name": "InvalidCandidateId",
      "type": "error"
    },
    {
      "anonymous": false,
      "inputs": [
        {
          "indexed": true,
          "internalType": "uint8",
          "name": "_candidateId",
          "type": "uint8"
        }
      ],
      "name": "VotedEvent",
      "type": "event"
    },
    {
      "inputs": [
        {
          "internalType": "uint8",
          "name": "",
          "type": "uint8"
        }
      ],
      "name": "candidates",
      "outputs": [
        {
          "internalType": "string",
          "name": "name",
          "type": "string"
        },
        {
          "internalType": "uint96",
          "name": "voteCount",
          "type": "uint96"
        },
        {
          "internalType": "uint8",
          "name": "id",
          "type": "uint8"
        }
      ],
      "stateMutability": "view",
      "type": "function",
      "constant": true
    },
    {
      "inputs": [],
      "name": "candidatesCount",
      "outputs": [
        {
          "internalType": "uint8",
          "name": "",
          "type": "uint8"
        }
      ],
      "stateMutability": "view",
      "type": "function",
      "constant": true
    },
    {
      "inputs": [
        {
          "internalType": "address",
          "name": "",
          "type": "address"
        }
      ],
      "name": "voters",
      "outputs": [
        {
          "internalType": "bool",
          "name": "",
          "type": "bool"
        }
      ],
      "stateMutability": "view",
      "type": "function",
      "constant": true
    },
    {
      "inputs": [
        {
          "internalType": "string",
          "name": "_name",
          "type": "string"
        }
      ],
      "name": "addCandidate",
      "outputs": [],
      "stateMutability": "nonpayable",
      "type": "function"
    },
    {
      "inputs": [
        {
          "internalType": "uint8",
          "name": "_candidateId",
          "type": "uint8"
        }
      ],
      "name": "vote",
      "outputs": [],
      "stateMutability": "nonpayable",
      "type": "function"
    }
  ],
  "bytecode": "0x608060405234801561001057600080fd5b506000600260006101000a81548160ff021916908360ff160217905550610bf48061003c6000396000f3fe608060405234801561001057600080fd5b50600436106100575760003560e01c80632d35a8a21461005c578063462e91ec1461007a5780636d6277f414610096578063a3ec138d146100c8578063b3f98adc146100f8575b600080fd5b610064610114565b604051610071919061051a565b60405180910390f35b610094600480360381019061008f919061068f565b610127565b005b6100b060048036038101906100ab9190610704565b610230565b6040516100bf939291906107d7565b60405180910390f35b6100e260048036038101906100dd9190610873565b610307565b6040516100ef91906108bb565b60405180910390f35b610112600480360381019061010d9190610704565b610327565b005b600260009054906101000a900460ff1681565b6002600081819054906101000a900460ff168092919060010191906101000a81548160ff021916908360ff16021790555050604051806060016040528082815260200160006bffffffffffffffffffffffff168152602001600260009054906101000a900460ff1660ff16815250600080600260009054906101000a900460ff1660ff1660ff16815260200190815260200160002060008201518160000190816101d19190610aec565b5060208201518160010160006101000a8154816bffffffffffffffffffffffff02191690836bffffffffffffffffffffffff160217905550604082015181600101600c6101000a81548160ff021916908360ff16021790555090505050565b600060205280600052604060002060009150905080600001805461025390610905565b80601f016020809104026020016040519081016040528092919081815260200182805461027f90610905565b80156102cc5780601f106102a1576101008083540402835291602001916102cc565b820191906000526020600020905b8154815290600101906020018083116102af57829003601f168201915b5050505050908060010160009054906101000a90046bffffffffffffffffffffffff169080600101600c9054906101000a900460ff16905083565b60016020528060005260406000206000915054906101000a900460ff1681565b600160003373ffffffffffffffffffffffffffffffffffffffff1673ffffffffffffffffffffffffffffffffffffffff16815260200190815260200160002060009054906101000a900460ff16156103ab576040517f7c9a1cf900000000000000000000000000000000000000000000000000000000815260040160405180910390fd5b60008160ff1614806103d15750600260009054906101000a900460ff1660ff168160ff16115b15610408576040517fd1c91f8400000000000000000000000000000000000000000000000000000000815260040160405180910390fd5b60018060003373ffffffffffffffffffffffffffffffffffffffff1673ffffffffffffffffffffffffffffffffffffffff16815260200190815260200160002060006101000a81548160ff0219169083151502179055506000808260ff1660ff168152602001908152602001600020600101600081819054906101000a90046bffffffffffffffffffffffff168092919060010191906101000a8154816bffffffffffffffffffffffff02191690836bffffffffffffffffffffffff160217905550508060ff167fbcf7de15fdf4782d37813bf08f8ecc4e58de044899851485e0b4f071a49b7d0260405160405180910390a250565b600060ff82169050919050565b610514816104fe565b82525050565b600060208201905061052f600083018461050b565b92915050565b6000604051905090565b600080fd5b600080fd5b600080fd5b600080fd5b6000601f19601f8301169050919050565b7f4e487b7100000000000000000000000000000000000000000000000000000000600052604160045260246000fd5b61059c82610553565b810181811067ffffffffffffffff821117156105bb576105ba610564565b5b80604052505050565b60006105ce610535565b90506105da8282610593565b919050565b600067ffffffffffffffff8211156105fa576105f9610564565b5b61060382610553565b9050602081019050919050565b82818337600083830152505050565b600061063261062d846105df565b6105c4565b90508281526020810184848401111561064e5761064d61054e565b5b610659848285610610565b509392505050565b600082601f83011261067657610675610549565b5b813561068684826020860161061f565b91505092915050565b6000602082840312156106a5576106a461053f565b5b600082013567ffffffffffffffff8111156106c3576106c2610544565b5b6106cf84828501610661565b91505092915050565b6106e1816104fe565b81146106ec57600080fd5b50565b6000813590506106fe816106d8565b92915050565b60006020828403121561071a5761071961053f565b5b6000610728848285016106ef565b91505092915050565b600081519050919050565b600082825260208201905092915050565b60005b8381101561076b578082015181840152602081019050610750565b60008484015250505050565b600061078282610731565b61078c818561073c565b935061079c81856020860161074d565b6107a581610553565b840191505092915050565b60006bffffffffffffffffffffffff82169050919050565b6107d1816107b0565b82525050565b600060608201905081810360008301526107f18186610777565b905061080060208301856107c8565b61080d604083018461050b565b949350505050565b600073ffffffffffffffffffffffffffffffffffffffff82169050919050565b600061084082610815565b9050919050565b61085081610835565b811461085b57600080fd5b50565b60008135905061086d81610847565b92915050565b6000602082840312156108895761088861053f565b5b60006108978482850161085e565b91505092915050565b60008115159050919050565b6108b5816108a0565b82525050565b60006020820190506108d060008301846108ac565b92915050565b7f4e487b7100000000000000000000000000000000000000000000000000000000600052602260045260246000fd5b6000600282049050600182168061091d57607f821691505b6020821081036109305761092f6108d6565b5b50919050565b60008190508160005260206000209050919050565b60006020601f8301049050919050565b600082821b905092915050565b6000600883026109987fffffffffffffffffffffffffffffffffffffffffffffffffffffffffffffffff8261095b565b6109a2868361095b565b95508019841693508086168417925050509392505050565b6000819050919050565b6000819050919050565b60006109e96109e46109df846109ba565b6109c4565b6109ba565b9050919050565b6000819050919050565b610a03836109ce565b610a17610a0f826109f0565b848454610968565b825550505050565b600090565b610a2c610a1f565b610a378184846109fa565b505050565b5b81811015610a5b57610a50600082610a24565b600181019050610a3d565b5050565b601f821115610aa057610a7181610936565b610a7a8461094b565b81016020851015610a89578190505b610a9d610a958561094b565b830182610a3c565b50505b505050565b600082821c905092915050565b6000610ac360001984600802610aa5565b1980831691505092915050565b6000610adc8383610ab2565b9150826002028217905092915050565b610af582610731565b67ffffffffffffffff811115610b0e57610b0d610564565b5b610b188254610905565b610b23828285610a5f565b600060209050601f831160018114610b565760008415610b44578287015190505b610b4e8582610ad0565b865550610bb6565b601f198416610b6486610936565b60005b82811015610b8c57848901518255600182019150602085019450602081019050610b67565b86831015610ba95784890151610ba5601f891682610ab2565b8355505b6001600288020188555050505b50505050505056fea2646970667358221220979ebd3d7932339418d10674e92ad0c5c3a95fc12ce7e9fb0e796ac1f83fa7e264736f6c63430008110033",
  "immutableReferences": {},
  "source": "// SPDX-License-Identifier: MIT\npragma solidity ^0.8.17;\n\ncontract Election {\n    struct Candidate {\n        string name;\n        uint96 voteCount;\n        uint8 id;\n    }\n\n    mapping(uint8 => Candidate) public candidates;\n    mapping(address => bool) public voters;\n    uint8 public candidatesCount;\n\n    event VotedEvent(uint8 indexed _candidateId);\n\n    error AlreadyVoted();\n    error InvalidCandidateId();\n\n    constructor() {\n        candidatesCount = 0;\n    }\n\n    function addCandidate(string memory _name) public {\n        unchecked {\n            candidatesCount++;\n        }\n        candidates[candidatesCount] = Candidate(_name, 0, candidatesCount);\n    }\n\n    function vote(uint8 _candidateId) public {\n        if (voters[msg.sender]) {\n            revert AlreadyVoted();\n        }\n        if (_candidateId == 0 || _candidateId > candidatesCount) {\n            revert InvalidCandidateId();\n        }\n        voters[msg.sender] = true;\n        unchecked {\n            candidates[_candidateId].voteCount++;\n        }\n        emit VotedEvent(_candidateId);\n    }\n}\n",
  "sourcePath": "C:\\xampp\\htdocs\\Vote-X\\contracts\\Election.sol",
  "compiler": {
    "name": "solc",
    "version": "0.8.17+commit.8df45f5f.Emscripten.clang"
  },
  "schemaVersion": "3.4.16",
  "updatedAt": "2024-07-14T17:35:35.643Z",
  "networkType": "ethereum",
  "devdoc": {
    "kind": "dev",
    "methods": {},
    "version": 1
  },
  "userdoc": {
    "kind": "user",
    "methods": {},
    "version": 1
  }
}